:040000006F00E06449
:100004000000000000000000A8010000B001000092
:10001400000000004C06000000000000000000008A
:100024004C0600004C060000000000000000000028
:100034004C060000000000004C0600000000000018
:100044004C0600004C0600004C06000000000000B6
:100054004C0600004C0600004C0600004C06000054
:100064004C0600004C0600004C0600004C06000044
:100074004C0600004C0600004C0600004C06000034
:100084004C0600004C0600004C0600004C06000024
:100094004C0600004C0600004C0600004C06000014
:1000A4004C0600004C0600004C0600004C06000004
:1000B4004C0600004C0600004C0600004C060000F4
:1000C4004C0600004C0600004C0600004C060000E4
:1000D4004C0600004C0600004C0600000000000026
:1000E400000000000000000000000000000000000C
:0C00F40000000000000000000000000000
:100100003D432A876373C3029377F700BDEFADE5E4
:10011000937606FF3D8ABA960CC34CC30CC74CC7F6
:100120004107E36BD7FE11E28280B306C3408A0623
:100130009702000096966780A6002307B700A306E3
:10014000B7002306B700A305B7002305B700A30433
:10015000B7002304B700A303B7002303B700A3022B
:10016000B7002302B700A301B7002301B700A30023
:10017000B7002300B700828093F5F50F93968500B2
:10018000D58D93960501D58D61B79396270097027B
:10019000000096968682E78086FA9680C1171D8FAA
:1001A0003E96E374C3F8A5B7411122C6000801A02A
:1001B000411122C6000801A0411106C622C4000850
:1001C0000545EF10201FF528EF30000FF16713856C
:1001D0000720EF304023B707002083A70748BE85DC
:1001E00095671385C741EF406014EF005017AA8749
:1001F000BE8595671385C742EF4040134D22938714
:10020000418289463E86B72701409385C744B70798
:100210000240138587008D2C8545B7070240138562
:100220008700EF007035814605468145B7270140BC
:1002300013850740692D814609468545B72701404A
:100240001385074069258545B72701401385074079
:100250002D2DEF2030750145EF201068EF20B03ACA
:100260001305401FEF30E0110145EF20F066EF105D
:10027000307FEF101027F5BF411106C622C40008D9
:10028000B71702409843B71702401367170098C387
:10029000B7170240D843B717024013670705D8C302
:1002A000B7170240D443B7170240370700F91307C6
:1002B000F7F5758FD8C371200100B2402244410187
:1002C0008280011122CE0010232604FEB7070020F1
:1002D0003777DC02130707C023A0E748B7170240AF
:1002E000DC43918313F7F700B707002093870700DB
:1002F000BA979C2393F7F70F2326F4FEB717024013
:10030000DC4393F7070891EFB707002003A70748DE
:100310008327C4FE3357F702B707002023A0E7481E
:1003200029A8B707002003A707488327C4FE33572F
:10033000F700B707002023A0E748010072440561D9
:100340008280411106C622C4000831200100B2405B
:10035000224441018280411122C60008B727024091
:100360009843B7270240719B98C3B7270240984330
:10037000B72702401367270098C3B7170240D84336
:10038000B71702401377F7F0D8C337170240B717F3
:1003900002405843D8C30100324441018280397180
:1003A00006DE22DC8000232804FC232A04FC232C04
:1003B00004FC232E04FC232004FE232204FE232419
:1003C00004FE232604FE232204FC232404FC23260B
:1003D00004FC85451145EF10400E854513050020AE
:1003E000EF10A00D85472322F4FC232604FC93077D
:1003F00044FCBE85B717014013850780EF00D01B72
:1004000089472322F4FC232604FC930744FCBE8581
:10041000B717014013850780EF00101AB727014076
:1004200013850740452C93055002B72701401385DB
:100430000740D525232804FC8547232AF4FC85475B
:10044000232CF4FCB7070E00232EF4FC232004FE1B
:1004500089472302F4FE930704FDBE85B7270140B8
:10046000138507406D248545B72701401385074054
:10047000F12E8545B727014013850740492E01001D
:10048000F2506254216182805D7186C6A2C48008E8
:10049000232EA4FA232CB4FA232AC4FAB6872319EC
:1004A000F4FA232204FC232404FC232604FC23283E
:1004B00004FC232A04FC232C04FC232E04FC23200C
:1004C00004FE232204FE232404FE232604FE854585
:1004D0000545EF00307A0325C4FB712D832784FB8B
:1004E0002322F4FC832744FB2324F4FC232604FC6E
:1004F000835724FB2328F4FC232A04FC93070008D9
:10050000232CF4FC93070010232EF4FC93070040E7
:100510002320F4FE930700022322F4FE8D67232498
:10052000F4FE232604FE930744FCBE850325C4FB8A
:1005300045270100B640264461618280797106D664
:1005400022D40018232204FE232404FE232604FEC2
:10055000232804FC232A04FC232C04FC232E04FC63
:10056000231004FE8545856713854700EF00F0746E
:10057000C1472322F4FEC1472326F4FE85472324E6
:10058000F4FE930744FEBE85B7170140138507802C
:10059000EF009002C145B717014013850780EF00B7
:1005A000703E930700022322F4FEE1472326F4FE67
:1005B00085472324F4FE930744FEBE85B717014008
:1005C00013850780EF00407F930700082322F4FE85
:1005D000E1472326F4FE85472324F4FE930744FED7
:1005E000BE85B717014013850780EF00E07C3735E3
:1005F0000140EF005075231E04FC8547231CF4FCCA
:100600008947231BF4FC9D472310F4FE231A04FCA6
:10061000F1772318F4FC231F04FC930740102319DF
:10062000F4FC93070020231DF4FC930704FDBE8512
:1006300037350140EF001074854537350140EF0034
:10064000307F0100B25022544561828001A09701A1
:10065000002093812163175100201301A19A17658F
:1006600000001305259B970500209385A599138607
:10067000018263FAC5008322050023A055001105FD
:100680009105E3EAC5FE13850182938501C5637771
:10069000B500232005001105E36DB5FEFD42739002
:1006A00002BC8D42739042809302800873900230A6
:1006B000970200009382429593E232007390523089
:1006C000EFF09FBB97020000938242AF7390123409
:1006D00073002030011106CE22CC00102326A4FE88
:1006E0000327C4FEB727014093870740631CF70028
:1006F000854513050020EF00B060814513050020FB
:10070000EF0010600100F24062440561828079715F
:1007100022D60018232EA4FC232CB4FC232604FE8E
:10072000A30504FE8327C4FDDC432326F4FE032730
:10073000C4FEB707F1E09387F7EFF98F2326F4FEA5
:10074000832784FD9843832784FD9C4F5D8F8327F7
:1007500084FDDC4F5D8F832784FDDC43A207D98FA6
:100760000327C4FED98F2326F4FE8327C4FD032765
:10077000C4FED8C38327C4FD9C472326F4FE032769
:10078000C4FEB7F7F1FF9387D77FF98F2326F4FED6
:10079000832784FD984B832784FDDC475D8F832767
:1007A00084FD9C478607D98F0327C4FED98F232653
:1007B000F4FE8327C4FD0327C4FE98C78327C4FD26
:1007C000DC572326F4FE0327C4FEB70710FFFD17EE
:1007D000F98F2326F4FE832784FDDC2BFD1713F706
:1007E000F70F8347B4FED98FA305F4FE8347B4FE09
:1007F000D2070327C4FED98F2326F4FE8327C4FD26
:100800000327C4FED8D7010032544561828001110C
:1008100022CE00102326A4FE2324B4FE832784FEC8
:1008200091CB8327C4FE9C4713E717008327C4FEA0
:1008300098C709A88327C4FE9C4713F7E7FF8327BF
:10084000C4FE98C70100724405618280011122CE66
:1008500000102326A4FE2324B4FE832784FE91CB1C
:100860008327C4FE9C4713E707108327C4FE98C75D
:1008700009A88327C4FE9C4713F7F7EF8327C4FE1C
:1008800098C70100724405618280011122CE0010D8
:100890002326A4FE2324B4FE832784FE99CB83273A
:1008A000C4FE9847B70750005D8F8327C4FE98C7E2
:1008B00019A88327C4FE9847B707B0FFFD177D8F9F
:1008C0008327C4FE98C70100724405618280797154
:1008D00022D60018232EA4FCAE873687A30DF4FC85
:1008E000B287230DF4FCBA87A30CF4FC232604FE84
:1008F000232404FE0347B4FDA54763F6E7068327D8
:10090000C4FDDC472326F4FE8347B4FD138767FF4D
:10091000BA878607BA971D47B317F7002324F4FE5A
:10092000832784FE93C7F7FF0327C4FEF98F23268E
:10093000F4FE834694FD8347B4FD138767FFBA87AF
:100940008607BA97B397F6002324F4FE0327C4FE64
:10095000832784FED98F2326F4FE8327C4FD032733
:10096000C4FED8C785A08327C4FD9C4B2326F4FE74
:100970000347B4FDBA878607BA971D47B317F70038
:100980002324F4FE832784FE93C7F7FF0327C4FEC6
:10099000F98F2326F4FE834694FD0347B4FDBA87FE
:1009A0008607BA97B397F6002324F4FE0327C4FE04
:1009B000832784FED98F2326F4FE8327C4FD0327D3
:1009C000C4FE98CB0347A4FD994763E6E706832757
:1009D000C4FDDC5B2326F4FE8347A4FD1387F7FFE9
:1009E000BA878A07BA977D47B317F7002324F4FE26
:1009F000832784FE93C7F7FF0327C4FEF98F2326BE
:100A0000F4FE8346B4FD8347A4FD1387F7FFBA873E
:100A10008A07BA97B397F6002324F4FE0327C4FE8F
:100A2000832784FED98F2326F4FE8327C4FD032762
:100A3000C4FED8DBE9A80347A4FDB14763E6E70697
:100A40008327C4FD9C5B2326F4FE8347A4FD138704
:100A500097FFBA878A07BA977D47B317F700232411
:100A6000F4FE832784FE93C7F7FF0327C4FEF98FA4
:100A70002326F4FE8346B4FD8347A4FD138797FF26
:100A8000BA878A07BA97B397F6002324F4FE0327A0
:100A9000C4FE832784FED98F2326F4FE8327C4FD5A
:100AA0000327C4FE98DBA5A08327C4FDDC572326BB
:100AB000F4FE8347A4FD138737FFBA878A07BA97E6
:100AC0007D47B317F7002324F4FE832784FE93C7E2
:100AD000F7FF0327C4FEF98F2326F4FE8346B4FDF7
:100AE0008347A4FD138737FFBA878A07BA97B3975E
:100AF000F6002324F4FE0327C4FE832784FED98F47
:100B00002326F4FE8327C4FD0327C4FED8D70100A3
:100B1000325445618280797122D60018232EA4FCBC
:100B2000232CB4FC232604FE8327C4FDBC4B2326C0
:100B3000F4FE8327C4FE93F707E02326F4FE032781
:100B4000C4FE832784FDD98F2326F4FE8327C4FDAA
:100B50000327C4FEB8CB01003254456182804111A5
:100B600022C60008B7F7FF1F938747709C433E8556
:100B7000324441018280011122CE00102326A4FEBE
:100B80008327C4FE9843C167F9177D8F8327C4FE6E
:100B900098C38327C4FE23A007008327C4FE23A293
:100BA00007008327C4FE23A407008327C4FE23A6CF
:100BB00007000327C4FEB7070240A107631BF70025
:100BC000B7070240D843B70702401367F700D8C3FE
:100BD000E5A80327C4FEB7070240F107631BF7002F
:100BE000B7070240D843B70702401367070FD8C3BF
:100BF000E1A80327C4FEB707024093870703631DDC
:100C0000F700B7070240D443B70702400567130750
:100C100007F0558FD8C34DA80327C4FEB70702407D
:100C200093874704631BF700B7070240D443B70715
:100C300002403D67558FD8C341A80327C4FEB707BC
:100C4000024093878705631CF700B7070240D4432F
:100C5000B707024037070F00558FD8C3B5A0032749
:100C6000C4FEB70702409387C706631CF700B707A7
:100C70000240D443B70702403707F000558FD8C36E
:100C8000A1A00327C4FEB707024093870708631C8F
:100C9000F700B7070240D443B70702403707000FF9
:100CA000558FD8C315A00327C4FEB707024093870A
:100CB0004709631BF700B7070240D443B707024058
:100CC000370700F0558FD8C3010072440561828058
:100CD000797122D60018232EA4FC232CB4FC2326E1
:100CE00004FE8327C4FD9C432326F4FE0327C4FE91
:100CF000E177BD07F98F2326F4FE832784FD98470B
:100D0000832784FD9C535D8F832784FD9C4B5D8FDF
:100D1000832784FDDC4B5D8F832784FD9C4F5D8F93
:100D2000832784FDDC4F5D8F832784FDDC535D8F3B
:100D3000832784FD9C57D98F0327C4FED98F232690
:100D4000F4FE8327C4FD0327C4FE98C3832784FDD4
:100D5000D8478327C4FDD8C3832784FD98438327BE
:100D6000C4FD98C7832784FDD8438327C4FDD8C713
:100D70000100325445618280011122CE00102326E9
:100D8000A4FE2324B4FE832784FE91CB8327C4FED4
:100D90009C4313E717008327C4FE98C311A8832739
:100DA000C4FE9843C167F9177D8F8327C4FE98C39B
:100DB0000100724405618280397122DE80002326A1
:100DC000A4FC2324B4FC232604FE232004FE2324B5
:100DD00004FE232E04FC232204FE232C04FC832780
:100DE00084FC9C47BD8B2326F4FE832784FC9C4710
:100DF000C18B89CB832784FCDC430327C4FED98FB6
:100E00002326F4FE832784FC9C4393F7F70FE1CF5E
:100E10008327C4FC9C432322F4FE232404FE55A80C
:100E2000832784FE0547B317F700232EF4FC83279E
:100E300084FC9C430327C4FDF98F2320F4FE032781
:100E400004FE8327C4FD6311F708832784FE8A0705
:100E5000232EF4FC8327C4FD3D47B317F700232C52
:100E6000F4FC832784FD93C7F7FF032744FEF98F23
:100E70002322F4FE8327C4FD0327C4FEB317F70023
:100E8000032744FED98F2322F4FE832784FC98474E
:100E900093078002631BF700832784FE05473317FF
:100EA000F7008327C4FCD8CB05A0832784FC984790
:100EB00093078004631AF700832784FE05473317DE
:100EC000F7008327C4FC98CB832784FE850723245F
:100ED000F4FE032784FE9D47E3F4E7F48327C4FC74
:100EE000032744FE98C3832784FC9843C1679387F4
:100EF00007F0F98F638607160327C4FCB717014074
:100F0000938707806319F700B707002083A7474836
:100F10002322F4FE05A80327C4FCB71701409387DA
:100F200007C06317F70083A781802322F4FE19A866
:100F30000327C4FCB71701406316F70083A7C180DD
:100F40002322F4FE232404FE65A8832784FEA10740
:100F50000547B317F700232EF4FC832784FC9C433A
:100F60000327C4FDF98F2320F4FE032704FE832703
:100F7000C4FD6312F708832784FE8A07232EF4FC3E
:100F80008327C4FD3D47B317F700232CF4FC8327C8
:100F900084FD93C7F7FF032744FEF98F2322F4FE55
:100FA0008327C4FD0327C4FEB317F700032744FEBD
:100FB000D98F2322F4FE832784FC9847930780026D
:100FC000631BF700832784FEA10705473317F7004B
:100FD0008327C4FCD8CB832784FC984793078004DD
:100FE000631BF700832784FEA10705473317F7002B
:100FF0008327C4FC98CB832784FE85072324F4FE33
:10100000032784FE9D47E3F2E7F48327C4FC03270C
:1010100044FED8C30327C4FCB71701409387078059
:101020006319F700B7070020032744FE23A2E7480F
:1010300005A80327C4FCB7170140938707C06317AF
:10104000F700032744FE23A4E18019A80327C4FC6A
:10105000B71701406316F700032744FE23A6E1807B
:10106000832784FC9843C167636EF70C8327C4FC15
:10107000DC4F2322F4FE232404FE5DA8832784FE94
:10108000C1070547B317F700232EF4FC832784FC20
:101090009C430327C4FDF98F2320F4FE032704FE9D
:1010A0008327C4FD6311F708832784FE8A07232E54
:1010B000F4FC8327C4FD3D47B317F700232CF4FC51
:1010C000832784FD93C7F7FF032744FEF98F23226C
:1010D000F4FE8327C4FD0327C4FEB317F7000327DC
:1010E00044FED98F2322F4FE832784FC984793077C
:1010F0008002631BF700832784FEC107054733176F
:10110000F7008327C4FCD8CB832784FC9847930738
:101110008004631AF700832784FE05473317F7001E
:101120008327C4FC98D3832784FE85072324F4FEF9
:10113000032784FE9D47E3F3E7F48327C4FC0327DA
:1011400044FED8CF0100725421618280797122D689
:101150000018232EA4FC232CB4FCA30704FE832731
:10116000C4FD9847832784FDF98F89C78547A30766
:10117000F4FE19A0A30704FE8347F4FE3E85325413
:1011800045618280011122CE00102326A4FE232473
:10119000B4FE032784FEC167FD177D8F8327C4FE3D
:1011A00098CB832784FE13D707018327C4FE98D3E7
:1011B0000100724405618280011122CE00102326B5
:1011C000A4FE2324B4FE8327C4FE032784FED8CBC9
:1011D0000100724405618280797122D60018232EA5
:1011E000A4FC232CB4FC232404FE232204FE232687
:1011F00004FE232004FEB7070140DC432326F4FE4F
:101200008327C4FDC183BD8B2320F4FE0327C4FDC7
:10121000C167FD17F98F2324F4FE0327C4FDB70728
:101220000008F98FE9CF0327C4FDB70730007D8F91
:10123000B70730006315F7020327C4FEB70700F1B4
:10124000FD17F98F2326F4FEB7070140D443B707F3
:101250000140370700F17D17758FD8C31DA2032702
:10126000C4FDB7074000F98F9DCFB7870300232245
:10127000F4FE832744FE93C7F7FF0327C4FEF98FCC
:101280002326F4FE832784FD89CB832784FEBE07B3
:101290000327C4FED98F2326F4FEB7070140032796
:1012A000C4FED8C329A20327C4FDB70730007D8F31
:1012B000B70720006314F702832704FEC1071D4708
:1012C000B317F7002322F4FE832744FE93C7F7FFEA
:1012D0000327C4FEF98F2326F4FE65A0832704FEAE
:1012E0001D47B317F7002322F4FE832744FE93C75C
:1012F000F7FF0327C4FEF98F2326F4FE59A0032726
:10130000C4FDB70730007D8FB70730006314F702C4
:10131000832704FEC1070D47B317F7002322F4FE0D
:10132000832744FE93C7F7FF0327C4FEF98F2326C4
:10133000F4FE81A80327C4FDB7071000F98F95C3F9
:10134000832704FE0D47B317F7002322F4FE8327FB
:1013500044FE93C7F7FF0327C4FEF98F2326F4FE4C
:101360000DA08327C4FDD5839D8B9207032784FEA0
:10137000B317F70093C7F7FF0327C4FEF98F23269F
:10138000F4FE832784FD99CF8327C4FDD5839D8BED
:101390009207032784FEB317F7000327C4FED98FF3
:1013A0002326F4FEB70701400327C4FED8C33254F6
:1013B00045618280011122CE00102326A4FE03275E
:1013C000C4FE23A0E182010072440561828079712C
:1013D00022D60018232EA4FC232604FE232404FE78
:1013E0008327C4FD3777DC02130707C098C3B717FC
:1013F0000240DC4393F7070F2326F4FE8327C4FE45
:1014000091832326F4FEB707002013870701832763
:10141000C4FEBA979C2393F7F70F2324F4FEB71763
:101420000240DC4393F7070881EF8327C4FD98430C
:10143000832784FE3357F7028327C4FDD8C319A836
:101440008327C4FD9843832784FE3357F7008327FF
:10145000C4FDD8C38327C4FDD8438327C4FD98C7E0
:101460008327C4FDD8438327C4FDD8C70100325465
:1014700045618280011122CE00102326A4FE232480
:10148000B4FE832784FE99CBB7170240D44BB7171D
:1014900002400327C4FE558FD8CB21A8B7170240BE
:1014A000D44B8327C4FE13C7F7FFB7170240758FCD
:1014B000D8CB0100724405618280011122CE001058
:1014C0002326A4FE2324B4FE832784FE99CBB717DA
:1014D0000240944FB71702400327C4FE558F98CFA0
:1014E00021A8B7170240944F8327C4FE13C7F7FF04
:1014F000B7170240758F98CF010072440561828052
:10150000011122CE00102326A4FE2324B4FE83273B
:1015100084FE99CBB7170240D447B7170240032780
:10152000C4FE558FD8C721A8B7170240D4478327D8
:10153000C4FE13C7F7FFB7170240758FD8C7010065
:10154000724405618280011106CE22CC0010232650
:10155000A4FE0327C4FEB73701406318F700854592
:101560000565793F81450565613F0100F2406244B0
:1015700005618280797122D60018232EA4FC232CC9
:10158000B4FC231704FE8327C4FD9E232317F4FE17
:101590000357E4FE8D6793870704F98F2317F4FE42
:1015A000832784FD9A23832784FDBE23D98F139735
:1015B00007014183832784FDDE23D98F1397070119
:1015C0004183832784FDFE23D98F1397070141832D
:1015D000832784FD9E27D98F139707014183832793
:1015E00084FDBE27D98F139707014183832784FD8C
:1015F000DE27D98F139707014183832784FDFE27B8
:10160000D98F1397070141838357E4FED98F23179E
:10161000F4FE8327C4FD0357E4FE9AA3832784FDC9
:101620009A2B8327C4FD9AAB010032544561828016
:10163000011122CE00102326A4FE2324B4FE83270A
:1016400084FE99CF8327C4FE9E23C207C18393E7FC
:1016500007041397070141838327C4FE9AA331A887
:101660008327C4FE9E23C207C18393F7F7FB13971A
:10167000070141838327C4FE9AA3010072440561D8
:101680008280011122CE00102326A4FEAE872315EE
:10169000F4FE8327C4FE0357A4FEDAA701007244B8
:1016A00005618280797122D60018232EA4FCAE87B2
:1016B000231DF4FC232604FE8327C4FD9E271397D5
:1016C000070141838357A4FDF98FC207C18389C7EE
:1016D00085472326F4FE19A0232604FE8327C4FE93
:1016E0003E853254456182805D7186C6A2C4800801
:1016F000232EA4FA232CB4FA232404FE232604FE6A
:10170000232204FE232004FE232E04FC8327C4FB93
:10171000232EF4FC8327C4FB9E2BC207C183232402
:10172000F4FE032784FEB567FD17F98F2324F4FE2A
:10173000832784FBFE233E87832784FED98F2324BF
:10174000F4FE832784FE1397070141838327C4FB9C
:101750009AAB8327C4FBDE27C207C1832324F4FE90
:10176000032784FEBD679387379FF98F2324F4FEF8
:10177000832784FBDA23832784FB9E27D98F139743
:1017800007014183832784FBBE27D98FC207C1830A
:101790003E87832784FED98F2324F4FE832784FE8B
:1017A0001397070141838327C4FBDAA78327C4FB70
:1017B000DE2BC207C1832324F4FE032784FEC16706
:1017C0009387F7CFF98F2324F4FE832784FBDE274A
:1017D0003E87832784FED98F2324F4FE832784FE4B
:1017E0001397070141838327C4FBDAAB9307C4FC3B
:1017F0003E85F13E0327C4FDB7470140938707802C
:101800006317F700832784FD2326F4FE29A083278E
:1018100044FD2326F4FE0327C4FEBA878607BA9741
:101820008E073E97832784FB9C438A07B357F702B2
:101830002322F4FE032744FE93074006B357F70222
:1018400092072324F4FE832784FE13D747009307CF
:101850004006B307F702032744FEB307F7402320EF
:10186000F4FE832704FE920713872703930740069D
:10187000B357F702BD8B032784FED98F2324F4FED0
:10188000832784FE1397070141838327C4FB9AA70C
:101890000100B640264461618280011122CE001011
:1018A0002326A4FE2324B4FE832784FE85C3832736
:1018B000C4FEDE271397070141838967D98F1397E9
:1018C000070141838327C4FEDAA705A08327C4FE4E
:1018D000DE27139707014183F977FD17F98F1397D7
:1018E000070141838327C4FEDAA701007244056122
:1018F0008280011122CE00102326A4FEAE8723157C
:10190000F4FE8357A4FE93F7F71F13970701418353
:101910008327C4FEDAA301007244056182807971D5
:1019200022D60018232EA4FCAE87231DF4FC232608
:1019300004FE8327C4FD9E23139707014183835729
:10194000A4FDF98FC207C18389C785472326F4FE0A
:1019500019A0232604FE8327C4FE3E853254456128
:101960008280411106C622C4000829220545EF10D5
:101970005021692031200100B2402244410182807F
:10198000011106CE22CC0010C567938737C12324EE
:10199000F4FE01450D2C0545EF1070160545252474
:1019A0000145612A0545512A0145412A0545712213
:1019B00005456122A30704FE1DA08347F4FE03270B
:1019C00084FEB357F700858B81C70545BD2219A05A
:1019D0000145A5228347F4FE8507A307F4FE0347CC
:1019E000F4FECD47E3FBE7FC0145F12A0545EF1086
:1019F00010110100F240624405618280011106CE9F
:101A000022CC0010A1472324F4FE01456D2A054590
:101A1000EF10F00E0545452A014505220145312A02
:101A20000145212A0145112A0545012AA30704FE83
:101A30001DA08347F4FE032784FEB357F700858B70
:101A400081C70545DD2819A00145C5288347F4FE57
:101A50008507A307F4FE0347F4FECD47E3FBE7FC4D
:101A6000014595220545EF1090090100F2406244BE
:101A700005618280011106CE22CC0010232204FED3
:101A8000232404FE232604FE854521453D34930787
:101A900000102322F4FEC1472326F4FE85472324A9
:101AA000F4FE930744FEBE85B7170140138507C0B7
:101AB000EFF08FB093050010B7170140138507C0F2
:101AC000EFF04FEC930700402322F4FEC14723269A
:101AD000F4FE85472324F4FE930744FEBE85B71722
:101AE0000140138507C0EFF02FAD93050040B717F5
:101AF0000140138507C0EFF02FEC9307002023224D
:101B0000F4FEC1472326F4FE85472324F4FE930701
:101B100044FEBE85B7170140138507C0EFF0CFA97B
:101B200093050020B7170140138507C0EFF0CFE8F9
:101B30000100F240624405618280011106CE22CC90
:101B40000010AA87A307F4FE93050040B7170140D1
:101B5000138507C0EFF04FE60545EF10407A0347C5
:101B6000F4FE8547631BF70093050020B71701407B
:101B7000138507C0EFF00FE109A893050020B71700
:101B80000140138507C0EFF02FE30545EF102077E4
:101B900093050040B7170140138507C0EFF08FDEB3
:101BA0000545EF10C07593050040B7170140138538
:101BB00007C0EFF06FE00545EF1060740100F240E0
:101BC000624405618280011106CE22CC00102326DA
:101BD000A4FE0545EF10A0728327C4FE91CB9305A8
:101BE0000010B7170140138507C0EFF0EFDC09A81C
:101BF00093050010B7170140138507C0EFF08FD889
:101C00000545EF10C06F0100F2406244056182801B
:101C1000797122D60018AA87231FF4FC8357E4FDAC
:101C2000938717E213D7F701BA978587231FF4FC30
:101C30008357E4FD95832317F4FE8357E4FD93F760
:101C4000F70FFD8BA306F4FE8357E4FE139777008E
:101C50008347D4FED98F3E853254456182807971A5
:101C600006D622D40018AA87231FF4FC8357E4FD6C
:101C70003E85793F2324A4FE0145B1370545EF1089
:101C800000680545893705454D3D01457D350145D0
:101C90006D3501455D3505454D35A30704FE1DA095
:101CA0008347F4FE032784FEB357F700858B81C773
:101CB0000545613519A0014549358347F4FE85077F
:101CC000A307F4FE0347F4FECD47E3FBE7FC014521
:101CD000DD3D0545EF10A0620100B2502254456180
:101CE0008280411106C622C426C24AC0000883D79A
:101CF00041823E85EF2040502A8783A70181BE851F
:101D00003A85EF109068AA87BE8403A70181956782
:101D1000BA8503A54746EF204010AA873E8983D79E
:101D200081823E85EF20404DAA87BE854A85EF100F
:101D3000D065AA87BE852685EF107003AA873E85E9
:101D4000EF202046AA871397070141832396E1825B
:101D500003D7C1822394E18293874182BE233E85CB
:101D6000EF2080492A8783A70181BE853A85EF103D
:101D7000D061AA87BE8403A701819567BA8503A5B0
:101D80004746EF208009AA873E8993878182BE2338
:101D90003E85EF206046AA87BE854A85EF10F05E3B
:101DA000AA87BE852685EF10807CAA873E85EF2016
:101DB000403FAA871397070141839387C182BAA343
:101DC0009387C182BA2393878182BAA303D7C18242
:101DD00083D7018363F6E70003D7C1822398E182AA
:101DE0009387C182BA2393870183BE2363F8E700F8
:101DF0009387C182BA2393870183BAA383D7C18211
:101E00003E85EF20603F2A87956783A587463A8500
:101E1000EF10B057AA87BE8483D701833E85EF2099
:101E2000A03DAA87BE852685EF10102BAA873E8588
:101E3000EF202037AA8713F7F70F238AE1829387D1
:101E4000C182BE233E85EF20203B2A87956783A56C
:101E500087463A85EF107053AA87BE849387018323
:101E6000BE233E85EF204039AA87BE852685EF1028
:101E7000B026AA873E85EF20C032AA8713F7F70F56
:101E80009387418398B303C74183938741839C33EE
:101E900063FFE70203D781839307803E63FCE7007B
:101EA00083C76183ADC7238B018283C761833E856E
:101EB000DD26B1A883D78183850713970701418366
:101EC000239CE182938781832391070089A09387D4
:101ED0008183BA239307803E63FFE70003C76183D2
:101EE00085476306F7020547238BE18283C7618339
:101EF0003E85552629A893878183BE23850713979E
:101F00000701418393878183BAA3239C0182A14562
:101F1000B7170140138507C0EFF04FA3AA87639A54
:101F2000070E5145EF10E04503C7C1839547631C79
:101F3000F70003C7D1839D476317F700238E018203
:101F4000A38E01823DA003C7D1839D47631CF70088
:101F5000A38E018283C7C183850713F7F70F238EF2
:101F6000E18201A883C7D183850713F7F70FA38EFA
:101F7000E18283C7C1833E8783C7D183BE869567CD
:101F80000E07369706079387C746BA979E233E8566
:101F9000F93183C7C1839387170493F7F70F054778
:101FA000C1463E86814513058006EF00100783C7B2
:101FB000D1833E8685474147854681451305000705
:101FC000EF00903883C7C1833E8783C7D183BE8625
:101FD00095670E07369706079387C746BA979E23DD
:101FE0003E86854741479146C54513050003EF00EE
:101FF000B0350100A145B7170140138507C0EFF0C8
:10200000EF94AA873E878547E316F7FE5145EF1008
:10201000403793050002B7170140138507C0EFF062
:10202000EF92AA876398070E5145EF10803583C75A
:10203000C18399EB83C7D18381EB1547238EE1825E
:102040001D47A38EE18235A083C7D18381EF1D4751
:10205000A38EE18283C7C183FD1713F7F70F238E89
:10206000E18201A883C7D183FD1713F7F70FA38E71
:10207000E18283C7C1833E8783C7D183BE869567CC
:102080000E07369706079387C746BA979E233E8565
:10209000F93683C7C1839387170493F7F70F054772
:1020A000C1463E86814513058006EF00007783C751
:1020B000D1833E8685474147854681451305000704
:1020C000EF00902883C7C1833E8783C7D183BE8634
:1020D00095670E07369706079387C746BA979E23DC
:1020E0003E86854741479146C54513050003EF00ED
:1020F000B025010093050002B7170140138507C002
:10210000EFF0CF84AA873E878547E315F7FE514558
:10211000EF1020270147930620031306700693054E
:10212000E0020945F12601479306D0031306700625
:102130009305900309456D2E83C741830547930698
:1021400020033E869305E00209455D26938741837F
:102150009C3305479306D0033E86930590030945BB
:10216000EF0000670100B24022449244024941015D
:102170008280411106C622C400080547C146956702
:102180001386C74381450145EF00100B0547C14643
:1021900095671386C744814513058006EF00D00973
:1021A0000547C146956713860745C5450145EF00BC
:1021B000B00885679387976E3E868547414791466D
:1021C000C54513050003EF0030180547C146956764
:1021D00013868745C54513058005EF00F0050547C3
:1021E00093064003130690069305C0020145892B10
:1021F00005479306F0031306900693057003014507
:1022000081230547930640031306F0079305C00298
:102210001305C006F12C01479306F0031306F007DF
:10222000930570031305C006E1240147A146956795
:102230001386C7459305D0021305C006EF00C07F83
:102240000547A14695671386074693058003130546
:10225000C006EF00607E0100B2402244410182804E
:10226000411106C622C40008EFF0AFEF352A85679A
:102270009387976E3E85EFF09F9E13054006EF1003
:10228000401083C761833E853920E5350100B240A7
:10229000224441018280011106CE22CC0010AA877F
:1022A000A307F4FE0347F4FE85476319F706854547
:1022B000B7170140138507C0EFE01FF08945B71736
:1022C0000140138507C0EFE0FFEB01479306400391
:1022D0001306F0079305C0021305C006112C05472D
:1022E0009306F0031306F007930570031305C00669
:1022F00001240547A14695671386C7459305D0027B
:102300001305C006152F0147A1469567138607469A
:10231000930580031305C006052751A08347F4FEEB
:10232000A5EB8945B7170140138507C0EFE0DFE84B
:102330008545B7170140138507C0EFE0BFE40547A7
:10234000930640031306F0079305C0021305C00669
:10235000452201479306F0031306F0079305700327
:102360001305C00671220147A14695671386C7452C
:102370009305D0021305C006C1250547A146956700
:1023800013860746930580031305C006752501A82B
:102390008D45B7170140138507C0EFE0FFE101004D
:1023A000F240624405618280797106D622D4001819
:1023B000232204FE232404FE232604FE232C04FCF3
:1023C000232E04FC232004FE85452145EFF0EF8EEB
:1023D0008D472322F4FEC1472326F4FE854723249C
:1023E000F4FE930744FEBE85B7170140138507C06E
:1023F000EFE09F9C8D45B7170140138507C0EFE0C4
:10240000BFDB93078003232CF4FC93078004232075
:10241000F4FE930784FDBE85B7170140138507C0FE
:10242000EFE09F990100B25022544561828079719A
:1024300006D622D40018AA87A30FF4FCAE87230F78
:10244000F4FCB287A30EF4FCB687230EF4FCBA8723
:10245000A30DF4FC0347D4FD8347F4FDB307F74015
:1024600093F7F70F8507A306F4FE0347C4FD8347E0
:10247000E4FDB307F74093F7F70F85072306F4FE53
:10248000A30704FE89A8230704FE1DA80347F4FD43
:102490008347E4FEBA9793F6F70F0347E4FD8347BB
:1024A000F4FEBA9793F7F70F0347B4FD3A86BE855B
:1024B0003685EF00D0208347E4FE85072307F4FE2E
:1024C0000347E4FE8347D4FEE362F7FC8347F4FE50
:1024D0008507A307F4FE0347F4FE8347C4FEE364C5
:1024E000F7FAEF00D02C0100B250225445618280EF
:1024F000797106D622D40018AA87A30FF4FCAE8700
:10250000230FF4FCB287A30EF4FCB687230EF4FC71
:10251000BA87A30DF4FC0347D4FD8347F4FDB3074A
:10252000F74093F7F70F8507A306F4FE0347C4FDB2
:102530008347E4FDB307F74093F7F70F85072306BA
:10254000F4FEA30704FE89A8230704FE1DA8034781
:10255000F4FD8347E4FEBA9793F6F70F0347E4FDD3
:102560008347F4FEBA9793F7F70F0347B4FD3A8613
:10257000BE853685EF00B0148347E4FE8507230748
:10258000F4FE0347E4FE8347D4FEE362F7FC83478F
:10259000F4FE8507A307F4FE0347F4FE8347C4FE59
:1025A000E364F7FA0100B2502254456182805D7104
:1025B00086C6A2C48008AA87A30FF4FAAE87230FA9
:1025C000F4FAB287A30EF4FAB687230EF4FABA87A8
:1025D000A30DF4FA232404FE232204FE0347D4FBB4
:1025E0008347F4FBB307F7402320F4FE0347C4FB03
:1025F0008347E4FBB307F740232EF4FC8347F4FB47
:102600002326F4FC8347E4FB2324F4FC832704FE05
:102610006356F0008547232AF4FC05A0832704FEB7
:1026200081E7232A04FC11A8FD57232AF4FC832701
:1026300004FEB307F0402320F4FE8327C4FD635655
:10264000F00085472328F4FC05A08327C4FD81E71B
:10265000232804FC11A8FD572328F4FC8327C4FD7C
:10266000B307F040232EF4FC032704FE8327C4FDA8
:1026700063D7E700832704FE232CF4FC29A08327DB
:10268000C4FD232CF4FC231704FE69A88327C4FC93
:1026900093F7F70F032784FC1377F70F8346B4FBF8
:1026A0003686BA853E85EF009001032784FE832796
:1026B00004FEBA972324F4FE032744FE8327C4FDB7
:1026C000BA972322F4FE032784FE832784FD63D177
:1026D000E702032784FE832784FDB307F740232402
:1026E000F4FE0327C4FC832744FDBA972326F4FC99
:1026F000032744FE832784FD63D1E702032744FEBA
:10270000832784FDB307F7402322F4FE032784FCCC
:10271000832704FDBA972324F4FC8357E4FE85073E
:102720002317F4FE0357E4FE832784FD8507E3DFC8
:10273000E7F4EF00D0070100B640264461618280D3
:10274000011106CE22CC0010AA87A307F4FEAE87A3
:102750002307F4FEB287A306F4FEB6872306F4FE31
:10276000BA87A305F4FE0347B4FE8346E4FE03469E
:10277000D4FE8345E4FE8347F4FE3E850D3D0347CA
:10278000B4FE8346C4FE0346F4FE8345E4FE83475D
:10279000F4FE3E85293D0347B4FE8346C4FE03464E
:1027A000D4FE8345C4FE8347F4FE3E8509350347C6
:1027B000B4FE8346C4FE0346D4FE8345E4FE83474D
:1027C000D4FE3E85ED330100F24062440561828013
:1027D000011106CE22CC0010AA87A307F4FEAE8713
:1027E0002307F4FEB287A306F4FEB6872306F4FEA1
:1027F000BA87A305F4FE0347B4FE8346C4FE03462E
:10280000D4FE8345E4FE8347F4FE3E85EFF03FC2ED
:102810000100F240624405618280797106D622D4BB
:102820000018AA87A30FF4FCAE87230FF4FCB2872D
:10283000A30EF4FCB687230EF4FCBA87A30DF4FCB8
:10284000230604FEA30704FEA30604FE8347D4FD6B
:1028500081172306F4FE8307F4FD63D90700A30F55
:1028600004FC8347E4FD8907230FF4FC0347C4FD00
:10287000C147631EF70CA30704FEE1A08347B4FD24
:1028800085C38347C4FE139747008347F4FE3E97F2
:1028900095679387477CBA979C232307F4FE0DA086
:1028A0008347C4FE139747008347F4FE3E9795671E
:1028B0009387477CBA979C2393C7F7FF2307F4FEBF
:1028C000A30604FEADA00347E4FE8347D4FE9306AF
:1028D0000008B3D7F640F98F85C70347F4FD834757
:1028E000D4FEBA9793F6F70F0347E4FD8347F4FE4F
:1028F000BA9793F7F70F0546BE853685C9231DA005
:102900000347F4FD8347D4FEBA9793F6F70F0347C6
:10291000E4FD8347F4FEBA9793F7F70F0146BE85AF
:102920003685712B8347D4FE8507A306F4FE034743
:10293000D4FE9D47E3F9E7F88347F4FE8507A30734
:10294000F4FE0347F4FEBD47E3FAE7F2F9A80347B4
:10295000C4FDA147631DF70CA30704FED1A0834764
:10296000B4FD99CF8346C4FE8347F4FE15678E06F7
:102970001307C74C3697BA979C232307F4FE05A08C
:102980008346C4FE8347F4FE15678E061307C74CC3
:102990003697BA979C2393C7F7FF2307F4FEA30645
:1029A00004FEADA00347E4FE8347D4FE930600086F
:1029B000B3D7F640F98F85C70347F4FD8347D4FEAC
:1029C000BA9793F6F70F0347E4FD8347F4FEBA97EF
:1029D00093F7F70F0546BE853685D5211DA0034721
:1029E000F4FD8347D4FEBA9793F6F70F0347E4FD4F
:1029F0008347F4FEBA9793F7F70F0146BE853685F5
:102A00007D298347D4FE8507A306F4FE0347D4FE41
:102A10009D47E3F9E7F88347F4FE8507A307F4FE33
:102A20000347F4FE9D47E3FCE7F2512311A00100A8
:102A3000B250225445618280797106D622D40018A2
:102A4000AA87232CC4FCA30FF4FCAE87230FF4FC4D
:102A5000B687A30EF4FCBA87230EF4FCA30704FE8A
:102A60000347D4FDC1476318F7008347D4FD85832E
:102A70002307F4FE95A80347D4FDA147631EF7067C
:102A80008347D4FD858393F7F70F89072307F4FE67
:102A9000A1A88347F4FE032784FDBA979023034738
:102AA000C4FD8346D4FD8345E4FD8347F4FD3E85A4
:102AB000AD330347F4FD8347E4FEBA97A30FF4FC5C
:102AC0000347F4FD9307800763FBE700A30F04FCB3
:102AD0000347E4FD8347D4FDBA97230FF4FC8347F3
:102AE000F4FE8507A307F4FE8347F4FE032784FD65
:102AF000BA979C23D9FF11A00100B250225445611E
:102B00008280797122D60018AA872E87A30FF4FC41
:102B1000BA87230FF4FC85472326F4FE09A88347D0
:102B2000F4FD0327C4FEB307F7022326F4FE834710
:102B3000E4FD1387F7FF230FE4FCF5F38327C4FEBE
:102B40003E85325445618280797106D622D40018C0
:102B5000232CC4FC3686BA863E87AA87A30FF4FCD2
:102B6000AE87230FF4FCB287A30EF4FCB687230EC6
:102B7000F4FCBA87A30BF4FC230704FE0347C4FD4F
:102B8000C1476318F7008347C4FD8583A306F4FE9D
:102B900031A80347C4FDA1476316F70E8347C4FD60
:102BA000858393F7F70F8907A306F4FEA30704FEB6
:102BB000D9A00347D4FD8347F4FEB307F74093F74A
:102BC000F70FFD1793F7F70FBE8529451D3F2A879D
:102BD000832784FD33D7E702A947B377F70223069B
:102BE000F4FE8347E4FEB9E70347F4FE8347D4FDD0
:102BF000FD176351F7048347C4FE95EB0347D4FEEA
:102C00008347F4FEB307F70213F7F70F8347F4FD8A
:102C1000BA9793F7F70F034774FD8346C4FD8345C6
:102C2000E4FD130600023E85EFF03FBF81A085471B
:102C30002307F4FE0347D4FE8347F4FEB307F702ED
:102C400013F7F70F8347F4FDBA9713F5F70F834790
:102C5000C4FE9387070313F6F70F034774FD8346FB
:102C6000C4FD8347E4FDBE85EFF03FBB8347F4FE20
:102C70008507A307F4FE0347F4FE8347D4FDE36A08
:102C8000F7F211A00100B25022544561828079719F
:102C900006D622D40018232CE4FC3E87AA87A30F73
:102CA000F4FCAE87230FF4FCB287A30EF4FCB687C6
:102CB000230EF4FCBA87A30BF4FCA30704FE05AAB9
:102CC000230704FE21A2834774FD85CB0347F4FE4E
:102CD0008347D4FD9D0793D6F7419D8AB6978D878C
:102CE0003307F7028347E4FEBA973E87832784FDC4
:102CF000BA979C232306F4FE0DA80347F4FE8347EE
:102D0000D4FD9D0793D6F7419D8AB6978D873307EB
:102D1000F7028347E4FEBA973E87832784FDBA977C
:102D20009C2393C7F7FF2306F4FEA30604FE69A0C5
:102D30000347C4FE8347D4FE93060008B3D7F6408A
:102D4000F98F85CF8347E4FE8E0713F7F70F83478C
:102D5000F4FDBA9713F7F70F8347D4FEBA9793F6AB
:102D6000F70F0347E4FD8347F4FEBA9793F7F70F95
:102D70000546BE853685A1221DA88347E4FE8E0741
:102D800013F7F70F8347F4FDBA9713F7F70F83474D
:102D9000D4FEBA9793F6F70F0347E4FD8347F4FE9A
:102DA000BA9793F7F70F0146BE853685092A834700
:102DB000D4FE8507A306F4FE0347D4FE9D47E3F93E
:102DC000E7F68347E4FE85072307F4FE0347E4FEA6
:102DD0008347D4FD9D0793D6F7419D8AB6978D878B
:102DE000E343F7EE8347F4FE8507A307F4FE0347AA
:102DF000F4FE8347C4FDE365F7EC552A0100B250A9
:102E0000225445618280411106C622C400088547CC
:102E10003707002013070702930600041306000873
:102E200081450145AD350100B24022444101828017
:102E3000011106CE22CC00102326A4FE2324B4FECA
:102E4000832784FE89CBA145B717014013850780EE
:102E5000EFE04FB301A8A145B717014013850780E4
:102E6000EFE08FB50100894537350140EFE09F83E2
:102E7000AA87F5DBC145B717014013850780EFE04E
:102E8000AFB38327C4FEC207C183BE853735014077
:102E9000EFE02FFF01009305000837350140EFE018
:102EA0007F80AA87EDFBC145B717014013850780D6
:102EB000EFE04FAD0100F2406244056182800111F4
:102EC00022CE0010AA87AE863287A307F4FEB6870B
:102ED0002307F4FEBA87A306F4FE8347D4FEADC3EE
:102EE0008347E4FE8D8313F6F70FB28713977700BD
:102EF0008347F4FE3E97B70700209387C74CBA97E5
:102F00009C231397870161878347E4FE9D8B854649
:102F1000B397F600E207E187D98F93958701E185A2
:102F2000B287139777008347F4FEB306F70013F7D1
:102F3000F50FB70700209387C74CB69798A3A5A0B5
:102F40008347E4FE8D8313F6F70FB287139777005C
:102F50008347F4FE3E97B70700209387C74CBA9784
:102F60009C231397870161878347E4FE9D8B8546E9
:102F7000B397F600E207E18793C7F7FFE207E1871F
:102F8000F98F93958701E185B2871397770083477F
:102F9000F4FEB306F70013F7F50FB7070020938789
:102FA000C74CB69798A30100724405618280011155
:102FB00006CE22CC00100100894537350140EFE0F4
:102FC0006FEEAA87F5DBC145B7170140138507806F
:102FD000EFE08F9EA30704FEF9A8A145B7170140B3
:102FE00013850780EFE04F9D8347F4FEC207C1833E
:102FF0009387070BC207C183BE8537350140EFE0D9
:103000004FE801009305000837350140EFE08FE9F4
:10301000AA87EDFB814537350140EFE08FE60100DF
:103020009305000837350140EFE0CFE7AA87EDFBB5
:10303000C14537350140EFE0CFE4010093050008BA
:1030400037350140EFE00FE6AA87EDFBA145B71742
:10305000014013850780EFE0EF92230704FE99A05B
:103060008347F4FE139777008347E4FE3E97B70744
:1030700000209387C74CBA979C23C207C183BE85A3
:1030800037350140EFE0EFDF0100930500083735E9
:103090000140EFE02FE1AA87EDFB8347E4FE8507BF
:1030A0002307F4FE8307E4FEE3DC07FA8347F4FE1C
:1030B0008507A307F4FE0347F4FE9D47E3FFE7F00F
:1030C000C145B717014013850780EFE0AF8B0100C2
:1030D000F240624405618280011106CE22CC0010CC
:1030E0002326A4FE8327C4FE81CF13060040930548
:1030F000F00FB70700201385C74CEFD06F8011A8E1
:10310000130600408145B70700201385C74CEFC068
:103110003FFF713D0100F240624405618280411130
:1031200006C622C400089145B717014013850780E1
:10313000EFE04F8513054006A9249145B7170140DC
:1031400013850780EFE04F87130540061D2C91453E
:10315000B717014013850780EFE0CF820100B2402E
:10316000224441018280011106CE22CC0010854507
:103170001145EFE08FB4B1472322F4FEC147232667
:10318000F4FE85472324F4FE930744FEBE85B7175B
:10319000014013850780EFD03FC20100F240624436
:1031A00005618280411106C622C40008EFD00FB924
:1031B0005D3F1305800CF1229D3781451305E00A20
:1031C000EFF01FC781450145EFF09FC6814541459E
:1031D000EFF01FC6814513050004EFF07FC5814560
:1031E0001305000BEFF0DFC4814513051008EFF065
:1031F0003FC481451305F00FEFF09FC381451305D0
:10320000100AEFF0FFC281451305600AEFF05FC2BC
:1032100081451305800AEFF0BFC181451305F00316
:10322000EFF01FC181451305800CEFF07FC0814591
:103230001305300DEFF0DFBF81450145EFF05FBFB3
:1032400081451305500DEFF0BFBE81451305000801
:10325000EFF01FBE81451305900DEFF07FBD814556
:103260001305100FEFF0DFBC81451305A00DEFF043
:103270003FBC81454945EFF0BFBB81451305B00D0B
:10328000EFF01FBB814513050003EFF07FBA8145C6
:103290001305D008EFF0DFB981455145EFF05FB974
:1032A00081451305F00AEFF0BFB80145353501003F
:1032B000B240224441018280411122C60008B70772
:1032C000002003A70748B7177A0093870720B35752
:1032D000F70213F7F70F238FE18283C7E183139778
:1032E000070141839307803EB307F7021397070155
:1032F00041832390E184010032444101828079714D
:1033000022D60018232EA4FC37F700E0544337F7E9
:1033100000E0F99A54C303C7E183BA860327C4FDCA
:103320003307D7022326E4FE37F700E08326C4FEE6
:10333000B68701481CCB232A0701B7F700E0984362
:10334000B7F700E01367070198C3B7F700E09843A9
:10335000B7F700E01367170298C30100B7F700E062
:10336000DC4313F717008547E31AF7FEB7F700E0D1
:103370009843B7F700E0799B98C301003254456148
:103380008280797122D60018232EA4FC37F700E042
:10339000544337F700E0F99A54C303D70184BA863F
:1033A0000327C4FD3307D7022326E4FE37F700E0E6
:1033B0008326C4FEB68701481CCB232A0701B7F732
:1033C00000E09843B7F700E01367070198C3B7F729
:1033D00000E09843B7F700E01367170298C30100B5
:1033E000B7F700E0DC4313F717008547E31AF7FE51
:1033F000B7F700E09843B7F700E0799B98C3010066
:10340000325445618280397106DE22DC8000232639
:10341000A4FC8545916713855700EFE00F8A854529
:10342000B707150013850702EFD01FDB9307004095
:103430002322F4FE85472324F4FEE1472326F4FEED
:10344000930744FEBE85B717014013850780EFD070
:10345000BF968327C4FC232AF4FC231C04FC231DF1
:1034600004FC231E04FC231004FEA147231FF4FCCC
:10347000930744FDBE85B747014013850780EFE001
:10348000AFA68545B747014013850780EFE0EFC041
:103490000100F250625421618280797106D622D4F3
:1034A0000018232EA4FC232CB4FC232AC4FC2326BE
:1034B00004FE232604FE91A0010093050004B747F3
:1034C000014013850780EFE08FC5AA87FDD78327CA
:1034D00084FD13871700232CE4FC83870700C207B1
:1034E000C183BE85B747014013850780EFE06FC0F9
:1034F0008327C4FE85072326F4FE0327C4FE832703
:1035000044FDE34BF7FA832744FD3E85B250225435
:1035100045618280011122CE00102326A4FE03A75C
:1035200041818327C4FE3E97938701C5636DF700F1
:1035300003A741818327C4FE3E97B7570020938796
:10354000078063F4E700FD5739A803A7418183276B
:10355000C4FE3E9723AAE18003A741818327C4FECE
:10356000B307F040BA973E857244056182804111ED
:10357000370780007D1713D8750126C29354750153
:103580003373A70093F4F40FB376B7004AC01378EF
:10359000F80F1359F50106C622C4FD819A872685C6
:1035A0004A86131E3300939E3600B3880441630A93
:1035B000B90E6350100D630408149307F00F638B6A
:1035C000F414B7070004B3EEFE00ED4763C11729FA
:1035D00093070002B3871741B397FE00B3D81E01CB
:1035E000B337F000B3E7F800B307FE401397570076
:1035F000635E0718370400047D147D8C2285EF007C
:10360000104C6D15B317A4006348951A058D13046B
:10361000150013070002018F3397E7003337E000EE
:10362000B3D78700D98F814413F7770019C713F7F1
:10363000F70091466303D700910713975700635B28
:10364000071485041307F00F4A866383E4169A076C
:10365000A58313F5F40FB2402244A6079314750115
:1036600013D59700458D7E0692440249518D410144
:1036700082806399080A138714001377E70F631792
:10368000071463900422630D0E1EE3860EFCB3073D
:10369000DE411397570063500722B387CE412E892E
:1036A00061B7635C100B630E08089307F00F638328
:1036B000F406B7070004B3EEFE00ED4763C9171F19
:1036C00093070002B3871741B397FE00B3D81E01DA
:1036D000B337F000B3E7F800F2971397570063573A
:1036E000070A85041307F00F6384E40CB706007E15
:1036F00013D71700FD16858B758FD98F35B7638D5E
:103700000E08FD18B307DE41E38208EE9307F00FC1
:10371000E39DF4EA630D030801461305F00FB707B4
:10372000400015BF33079840EDE863020E147D1783
:10373000630807189307F00F6319F80E2E89368374
:10374000D1BF638B0E04FD18B307DE01E38708F8D1
:103750009307F00FE393F4F675BF639508088504AB
:1037600013F7E40F6313071263170510630F0E14AA
:10377000E3830EEEB307DE011397570081446357CE
:103780000700370700FC7D17F98F854413F7770092
:10379000E31F07E813D337009307F00FE38CF4F629
:1037A00093179300A58313F5F40F4A866DB54A86E7
:1037B0001305F00F814745B5370700FC7D17F98FDA
:1037C00013F77700898CE31407E6E9B73304DE4189
:1037D0009317540063C3070CE31204E2014601454A
:1037E000814795BD33079840ADC49307F00FE308B8
:1037F000F8F4B7070004336EFE00ED4763CCE70C26
:1038000093070002998FB317FE003357EE00B337CA
:10381000F000D98FF697C284C9B59307F00FE30F74
:10382000F8F0B7070004336EFE00ED4763C3E70806
:1038300093060002998EB316DE00B357EE003337BD
:10384000D000D98FB387FE40C2842E8945B3854707
:1038500061BB630E0E067D17B307DE01C284E30E63
:1038600007E69307F00FE31AF8F8368365B5368359
:10387000C2842E8915B7E3040EECE38D0EE869BD12
:10388000638D0E022E86B687F9B39307F00FE3819E
:10389000F4F2B307DE018583D5BD3384CE412E8992
:1038A000B1BBE31C0EFCE3890EE62E8949BD8547BA
:1038B00025B5854741BFE39B07EC0146814761BBC6
:1038C000B387CE41C2842E8915B3B68769B33683D8
:1038D000C284D9B585473DBF3971935775014AD820
:1038E00056D25ECE931A95001359F50106DE22DCFE
:1038F00026DA4ED652D45AD093F7F70F93DA9A00BD
:10390000CA8B638207121307F00F6384E7128E0AD3
:1039100037070004B3EAEA00138A17F80144014BA1
:1039200093D775019394950093F7F70FA58093D9DA
:10393000F501FDC71307F00F6387E7028E04938735
:1039400017F837070004D98C330AFA408146558CA2
:1039500017270000130747460A043A941C403349CE
:103960003901BA978287130A1AF0F9E88946558C0B
:1039700017270000130747480A043A941C403349AC
:103980003901BA97828701491307F00FB707400042
:1039900013959700F25062549317770125817E09A1
:1039A0005D8D33652501D2544259B259225A925A3B
:1039B000025BF24B216182801307F00F8147C9BF80
:1039C000A68ACE8B368B8947630BFB1A8D47E30C97
:1039D000FBFA8547630AFB0A1307FA0713F91B0072
:1039E0006357E01293F77A0099C793F7FA0091466C
:1039F0006383D700910A93974A0063D90700B707FA
:103A000000F8FD17B3FAFA0013070A089307E00F4E
:103A1000E3C4E7FA93976A00A5831377F70F8DBF86
:103A2000B9E48546A9B763940A021144014A054BDB
:103A3000C5BD63990A002144130AF00F094BCDB5A7
:103A40008D4631B73144130AF00F0D4BD1BD568569
:103A50002EC6EF00D0069307B5FFB39AFA0093077E
:103A6000A0F8338AA7400144014BB24555BD2685D5
:103A7000EF00F0041307B5FFB307AA00B394E40006
:103A8000138A67078146E1B513F91B000147814797
:103A900001B74166139554007D1693570501698E51
:103AA00063FA9A0AB3D5FA027D1AD686014733889B
:103AB000C502B3F6F602C206558F637B07012A974B
:103AC0009386F5FF6368A70A6376070BF9152A97B3
:103AD00033070741B356F7023377F702B38AC602BA
:103AE0009317070163FB5701AA971387F6FF63E15A
:103AF000A70863FF5707F916AA97C205B38A57416B
:103B0000D58DB33A5001B3EA5501CA8BF1B585465C
:103B1000998E11C76D4601478147E34BD6E6130ADC
:103B2000EA09339A4A01B3D7DA00B33A4001B3E75E
:103B3000570113F7770019C713F7F700914663038E
:103B4000D700910713975700634807029A07A58388
:103B500001473DBD93D61A00B3D5F6021397FA017B
:103B600041833388C502B1B7CE8B368B814AA1BD64
:103B7000BA8661B7B685A9BF0547814711BD13F95C
:103B80001B001307F00F814721B5797122D413541C
:103B900075014ECE52CC9319950006D626D24AD046
:103BA00056CA5AC81374F40F93D99900135AF501E1
:103BB00069C49307F00F6308F40E93973900370731
:103BC0000004B3E9E700130414F88144014B13D750
:103BD0007501939A95001377F70F93DA9A0013D92A
:103BE000F50145CF9307F00F630CF7028E0A130718
:103BF00017F8B7070004B3EAFA003A9401463345D0
:103C00002A01BD47AA869305140063E09710172781
:103C10000000130767228A04BA949C40BA978287EF
:103C20001304F40F63960A0C93E424000946C1BF01
:103C300001451307F00FB7074000B2502254A60702
:103C40005E07A5837E05D98F92540259F249624AD4
:103C5000D24A424B5D8D45618280CA86D689328BBD
:103C60008947630FFB088D47E304FBFC85473685D6
:103C70006310FB1A01478147C9B7639D090413D735
:103C80007501939A95001377F70F91440144054B02
:103C900093DA9A0013D9F50131F7639D0A0093E492
:103CA00014000546A9BF63920902A1441304F00F52
:103CB000094B31BF568521259307B5FF098CB39A6F
:103CC000FA001304A4F801461DBFB1441304F00F19
:103CD0000D4BF5BD4E852EC6DD239307B5FF1304AE
:103CE000A0F8B399F900098C8144014BB245C5B5E0
:103CF00093E434000D4621B78947D286E315FBF6DD
:103D000036851307F00F81470DBF41639306F3FF1C
:103D100013D6090193D80A01B3F7D900B3FADA0030
:103D200033885703B389F80213570801B30A5603BF
:103D3000D6994E9733061603637357011A96C167D7
:103D4000FD17B376F7003378F800C206C296939950
:103D5000660093570701B3393001E982B2979A0799
:103D6000B3E6D900B3E9D7009397490063D90700B8
:103D700013D7190093F71900B369F7002E841307BE
:103D8000F4076350E00493F7790099C793F7F900BB
:103D900091466383D70091099397490063D907003F
:103DA000B70700F8FD17B3F9F900130704089307E4
:103DB000E00F63CBE70493976900A5831377F70FB0
:103DC000ADBD8547B386E74011C76D4601478147C2
:103DD000E345D6E61307E4093397E9003337E000FB
:103DE000B3D7D900D98F13F7770019C713F7F700A6
:103DF00091466303D700910713975700634C070060
:103E00009A07A583014715BD1307F00F814735B504
:103E10002E84B5B7054781470DB53707800041119E
:103E20007D179356750113D87501B377A70093F6E4
:103E3000F60F935EF5013376B70026C24AC01378B9
:103E4000F80F06C622C41303F00F3E8E3689F6849F
:103E5000139F3700FD8113153600B38806416302B6
:103E6000681093C51500638CBE106354100D631069
:103E700008106304051EFD18B307AF4063860802EF
:103E80009307F00F6388F616ED4763C717291307EA
:103E90000002330717413317E500B35715013337D5
:103EA000E000D98FB307FF40139757006351071AFB
:103EB000370400047D147D8C228511216D15B31704
:103EC000A400634E251B3305254113041500130779
:103ED0000002018F3397E7003337E000B3D7870044
:103EE000D98F014913F7770019C713F7F7009146E7
:103EF0006303D700910713975700635E0714930677
:103F000019001307F00F93FE14006386E6169A0754
:103F1000A58393F6F60FA607B240224413D5970067
:103F2000DE069397FE01558D924402495D8D410155
:103F300082806392080A138716001377E70F631BCA
:103F400007146394062263020F2071D5B307AF40B4
:103F50001397570063550722B307E5410149AE8423
:103F600051B7E30005F0638ABE0AE35410FD9307DE
:103F7000F00F6381F608B70700045D8D31B7635E0B
:103F80001009630108089307F00F6385F606B70769
:103F900000045D8DED4763C0171F13070002330750
:103FA00017413317E500B35715013337E000D98FB8
:103FB000FA9713975700635C070805091307F00F7A
:103FC000630BE90AB706007E13D71700FD16858B31
:103FD000758FD98F01BF3307D84063950610630DE5
:103FE0000F147D176303071A9307F00F6314F8107B
:103FF000AE84328E630F0E06814E9306F00FB70724
:10400000400011BF39C9FD18B307AF00E38308FAB8
:104010009307F00FE390F6F8F1BF6399080813894E
:1040200016001377E90F63160712639B06106303EC
:104030000F16E30205EEB307AF00139757000149CF
:1040400063570700370700FC7D17F98F054913F701
:104050007700E31C07E813DE37009307F00FE30B4C
:10406000F9F893179E00A5839376F90F93FE140039
:104070005DB593FE14009306F00F814769BD3707C5
:1040800000FC7D17F98F13F777003309A940E31E71
:1040900007E4D1B73304AF409317540063C3070C50
:1040A000E31C04E0814E81468147B5B53307D84013
:1040B000B5C69307F00FE30EF8F2B7070004336FAD
:1040C000FF00ED4763CDE70C93070002998FB3170C
:1040D000FF003357EF00B337F0005D8FB307A70041
:1040E0004289C1BD9307F00FE304F8F0B70700045D
:1040F000336FFF00ED4763C2E70893070002998F13
:10410000B317FF003357EF00B337F000D98FB30771
:10411000F5404289AE8449BB854769B3630E0F06FB
:104120007D17B307AF004289E30507E89307F00F57
:10413000E319F8F8328E7DBD328E4289AE8431BFEC
:10414000E3090FEAE30805EA45BD0DCDAE8EB2875F
:10415000D9B39307F00FE300F9F2B307AF008583FB
:10416000FDB53304E541AE8481BBE31D0FFCE305DF
:1041700005E8AE84BDBD854725BD854749BF0149DA
:10418000E39707EC814E814779B3B307E541428954
:10419000AE8419BBB28741B3328E42897DBD0547DB
:1041A00035BF13577501370680009307F6FF137765
:1041B000F70F9305E007B3F6A7009357F501014504
:1041C00063F4E50099C3828082809307E0097D55FE
:1041D000E3EBE7FE93055009B3E7C60063D7E500BC
:1041E0001307A7F63395E7008280130560093307AC
:1041F000E54033D5E7008280411106C622C426C2BD
:104200000DCD9357F54133C4A7001D8CAA84228598
:104210007D209307E0093387A74093076009FD805D
:1042200063CCE702A1469377F70F63D5A60061152B
:104230003314A4002604258021A081448147014431
:10424000260413559400B2402244DE07FE045D8D1F
:10425000458D9244410182809307900963DDE70018
:104260009307B5019546B317F400898E3354D400F3
:10427000B337F0005D8C954763D6A7009307B5FF71
:104280003314F400B70600FCFD1693777400337600
:10429000D40085C39377F4009145638CB700110671
:1042A0009317560063D707009307F009758E33877D
:1042B000A7401314660025809377F70F51B7C167A5
:1042C000637CF5029307F00F1307000263EBA7006E
:1042D00097270000938747BAAA9788233305A740FA
:1042E0008280218197270000938707B9AA978823A6
:1042F00061473305A7408280B7070001636DF50071
:10430000618197270000938727B7AA9788232147C1
:104310003305A74082804181972700009387C7B566
:10432000AA97882341473305A740828039713EDA36
:104330002ED232D436D63AD842DC46DE93878181FB
:1043400022CC804326CA06CEAA8409C41C4C99E319
:104350002285F9200C4454102686228536C6212950
:10436000F2406244D24421618280411122C406C6D7
:104370002A844EA572A523200500232205002324AC
:1043800005002322050623280500232A0500232CE7
:104390000500214681451305C505EFB07FD6971767
:1043A00000009387C7A35CD0971700009387E7A509
:1043B0001CD4971700009387C7A95CD497170000F7
:1043C000938727AC00D01CD8B240224441018280A0
:1043D000971500009385A5DF89AA411126C213060F
:1043E00080069384F5FFB384C4024AC02E8922C498
:1043F00006C69385440799242A8401CD232005000D
:1044000023222501310508C4138684068145EFB0B7
:104410003FCF2285B240224492440249410182802A
:104420001C4DA5E7411106C622C4970700009387DB
:1044300067FA1CD59387C1819C4323240504232656
:104440000504232805046314F50085471CCD2A8440
:10445000352848C022851D2808C42285052848C45F
:10446000484001469145EFF05FF008440546A545F8
:10447000EFF0BFEF48440946C945EFF01FEF85470D
:104480001CCCB2402244410182808280411193873A
:10449000C18126C284434AC006C69C4C22C42A89D4
:1044A00099E32685B53F938484048044DC40FD175E
:1044B00063D607009C40B9CF8440C5BF0317C40032
:1044C00039E7C1778507232204062320040023222D
:1044D0000400232404005CC423280400232A0400CD
:1044E000232C0400214681451305C405EFB05FC1AC
:1044F000232A0402232C0402232404042326040474
:104500002285B24022449244024941018280130430
:10451000840671BF91454A85EFF03FEC88C049FDA4
:10452000B1472320F9000144E1BF797122D44AD078
:1045300052CC56CA5AC85EC606D626D24ECE2A8A53
:10454000AE8A130485040149054BFD5B09ECB250AA
:1045500022544A8592540259F249624AD24A424B45
:10456000B24B45618280044483294400FD1963D421
:1045700009000040E1BFDE24637BFB008397E40079
:1045800063877701A6855285829A3369A90093844F
:104590008406E9BFDDC183A7C5FF411122C406C659
:1045A00026C21384C5FF63D307003E94AA84EF009C
:1045B000105B938741849C4381EF2322040023A254
:1045C00081842244B2402685924441016F005059B3
:1045D000637EF40014403307D4006396E7009843E9
:1045E000DC43369718C05CC0D9BFBA87D84319C31B
:1045F000E37DE4FE94433386D700631F86001040BA
:10460000B29694C33386D700E31DC7FA10435843CC
:10461000B29694C3D8C375B76375C400B1479CC044
:104620004DB71040B306C4006316D7001443584377
:10463000B29614C058C0C0C369B78280011126CA9F
:1046400093843500F19806CE22CC4AC84EC6A10408
:10465000B14763F3F404B14463E2B4042A89EF0080
:1046600010509387418498433A8439E0938781843A
:104670009C4391E781454A85252F23A4A184A685E3
:104680004A853D27FD5963193507B1472320F900B5
:104690004A85EF00F04C29A0E3D004FCB1471CC1CF
:1046A0000145F2406244D2444249B24905618280E8
:1046B0001C40858F63CF0702AD4663F6F6001CC031
:1046C0003E9404C031A05C406313870223A2F184AE
:1046D0004A85EF00F0481305B40093074400619940
:1046E0003307F5405DDF3A94898F1CC05DBF5CC322
:1046F000C5B72287404095BF130435007198E30287
:1047000085FCB305A4404A856525E31C35FBB5BF90
:104710001C46FD171CC663D90700184E63C5E70089
:10472000A9476393F500B9AF1C422E851387170084
:1047300018C28CA38280011122CC26CA4AC84EC658
:1047400052C406CE2A89AE893284B304D6007D5A7B
:1047500063149400014501A80C204E864A854D3F04
:104760000504E31745FFF2406244D2444249B2498E
:10477000224A05618280357122CD26CB4AC94EC7B7
:1047800006CF52C556C35AC1DEDEE2DCE6DAAA899C
:10479000AE843289368409C51C4D99E3EFF05FC8B9
:1047A000971700009387477F6399F40C83A449000F
:1047B000DE24A18BEDC79C48FDC393070002A30430
:1047C000F1029307000302D22305F10222C6930BE4
:1047D0005002972A0000938A2A80054C294B4A846C
:1047E0001C2099C3639F770DB30C2441638E0C008A
:1047F000E6864A86A6854E85EFF0FFF3FD576301F6
:10480000F51E9256E69636D21C20638B071CFD5788
:104810001309140002C802CE3ECA02CCA309010447
:1048200082D48345090015465685EF00D031130424
:104830001900C24749E913F7070109C71307000226
:10484000A309E10413F7870009C71307B002A309FE
:10485000E104834609001307A002638EE606F247CF
:104860004A8481462546182093051400130707FD46
:104870006376E60AADCA3ECEBDA0971700009387C7
:10488000A7736395F40083A489001DB797170000F0
:104890009387876EE39EF4F083A4C90011BFA685B9
:1048A0004E85F92519D97D55FA406A44DA444A49BA
:1048B000BA492A4A9A4A0A4BF65B665CD65C0D6195
:1048C0008280050431BF330555413315AC00C98FD3
:1048D0003EC82289B9B7324793064700184336C607
:1048E000634707023ACE18209307E002631DF704DE
:1048F00018309307A002631BF702B247090413871D
:1049000047009C433AC663C107023ECA2DA833073D
:10491000E04093E727003ACE3EC8F1B7B38767037C
:1049200085462E84BA9781B7FD57C5B7050402CADC
:10493000814681472546182093051400130707FD7B
:104940006376E606F9F20C200D46171500001305F4
:104950002569EF00501F11CD971700009387476816
:104960001D8D93070004B397A700424505045D8D94
:104970002AC80C201946171500001305A56613094F
:1049800014002304B102EF00101C35C197B7FFFFDC
:104990009387476795E74247B2471377071009CFD8
:1049A00091073EC69257D2973ED215BDB387670393
:1049B00085462E84BA9741B79D07E19BA107D5B7DD
:1049C000780097060000938646D726860C084E8509
:1049D00097000000E7000000FD572A8AE314F5FC69
:1049E000DE2493F70704E39007EC125575BD7800B9
:1049F00097060000938666D426860C084E85012A09
:104A0000E1BF797156CA9C49BA8A984522D426D208
:104A10004ECE52CC06D64AD05AC85EC6AA892E843B
:104A2000B284368A63D3E700BA879CC00347340454
:104A300019C385079CC01C4093F7070281C79C409F
:104A400089079CC00329040013796900631A0900CF
:104A5000130B9401FD5B5C449840998F634CF904FF
:104A60001C408346340493F70702B336D000A5EB0D
:104A700013063404D2854E85829AFD576303F504EC
:104A80001C4011469840998B544481446397C70059
:104A9000B384E64063D3040081441C441848635443
:104AA000F700998FBE94014969047D5B63982405E2
:104AB000014509A885465A86D2854E85829A631E8D
:104AC00075017D55B250225492540259F249624AFE
:104AD000D24A424BB24B456182800509ADBF3307D4
:104AE000D40013060003A301C704034754049387AB
:104AF0001600A2978906A381E7049DBF85462286FA
:104B0000D2854E85829AE30E65FB050945B779711A
:104B100022D426D24AD04ECE06D652CC56CA5AC835
:104B2000B689942D930790063289AA842E84138621
:104B30003504638DF60263E2D7069307800563862A
:104B4000F61863EDD700638E062093073004638E5A
:104B5000F60A930A24042301D404C9A0930730065B
:104B60006385F60A93074006E395F6FE1C4008436A
:104B700093F6070893054500C5C61C410CC363D8CE
:104B800007001307D002B307F040A301E40497160F
:104B900000009386A645294765A89307000763820E
:104BA000F61663E5D7029307E0066389F6189307C4
:104BB000F006E390F6FA0C401C4313F80508138541
:104BC00047006307080608C39C4385A8930750075E
:104BD000E383F6FE930780076389F6129307300795
:104BE000E399F6F61C43D04181459386470014C3F0
:104BF00083AA07005685812F01C53305554148C05A
:104C00005C401CC8A301040461A81C43930A24044B
:104C1000938647009C4314C32301F4048547D5B70A
:104C200093F607041C410CC3B9DAC207C18781BFE0
:104C300093F5050408C3C9D99E231307F0066387BB
:104C4000E60E971600009386663A2947A3010404EE
:104C50004C400CC463C5050008406D9908C099E339
:104C6000B28A89CDB28AB3F5E702FD1AB6958C21D6
:104C70002380BA00B3D5E70263F0E70CA147631EB7
:104C8000F7001C40858B91CB58401C4863C7E70058
:104C900093070003A38FFAFEFD1A3306564110C88E
:104CA0004E87CA867000A2852685EFF09FD57D5A73
:104CB000631D450B7D55B250225492540259F2495E
:104CC000624AD24A424B45618280A382D50497163C
:104CD00000009386A6310C40084313F805081C41D8
:104CE0001105630D080208C313F7150001C793E50A
:104CF00005020CC04147B9FB0C4093F5F5FD0CC013
:104D0000B1B79C4193E707029CC193078007A302B8
:104D1000F404971600009386A62E75BF13F80504B9
:104D200008C3E30308FCC207C1837DBF97160000D8
:104D30009386C62B214719BFAE8735B794411C43D4
:104D4000CC4913F80608138547006306080008C31A
:104D50009C438CC339A008C393F606049C43F5DA40
:104D60008EA323280400B28A25BF14485686CA851C
:104D700026858299E30045F51C40898B8DE7B24773
:104D80004844E35AF5F23E853DB785465686CA85C6
:104D900026858299E30065F3050A5C443247998FC2
:104DA000E345FAFEE9BF014A930A94017D5BF5B73A
:104DB000411122C42A842E8523A601C406C6EFE031
:104DC0006FF5FD576317F5009387C1C49C4391C3EA
:104DD0001CC0B240224441018280411122C42E8471
:104DE0008395E50006C6B52B634905007C48AA9764
:104DF0007CC8B2402244410182805E247D777D17C9
:104E0000F98F5EA4FDB7DE25011122CC26CA4AC85F
:104E10004EC606CE93F70710AA842E843289B6892F
:104E200091C78395E5008946014621215E247D775F
:104E30007D17F98F5EA48315E4006244F240CE86AC
:104E40004A86B24942492685D2440561DDA841110E
:104E500022C42E848395E50006C6E12EFD575A2410
:104E6000631AF500FD77FD17F98F5EA4B240224466
:104E7000410182808567D98F5EA468C8C5BF8395CC
:104E8000E500FDA2011122CC26CA4AC806CE4EC6B4
:104E9000AA842E89328409C51C4D99E3EFF04FD8BE
:104EA000971700009387470F6317F406C0401C4C08
:104EB0001CC45E24A18BC1C31C48B5CF1C4808404C
:104EC0009379F90F1379F90F1D8D5C486346F5004E
:104ED000A2852685DD2C25E51C440505FD171CC48F
:104EE0001C401387170018C0238037015C48638873
:104EF000A7005E24858B81CBA9476316F900A285A4
:104F00002685E1240DEDF24062444A85D2444249AF
:104F1000B24905618280971700009387E7096314FF
:104F2000F400804469B7971700009387E704E31003
:104F3000F4F8C044ADBFA28526851D2841D17D5916
:104F4000D9B7411122C42A842E85B285368623A67C
:104F500001C406C6EFE06FD4FD576317F5009387D1
:104F6000C1C49C4391C31CC0B24022444101828011
:104F700041119387818126C2844322C44AC006C658
:104F80002A892E8491C49C4C81E72685EFF04FC975
:104F90009717000093874700631BF402C040031774
:104FA000C40093170701C18393F68700B5EA93F60F
:104FB000070195EEA5472320F900136707045AA4BB
:104FC0007D55B240224492440249410182809717A4
:104FD0000000938767FE6314F4008044C9B79717F5
:104FE0000000938767F9E31CF4FAC0444DBF918B2E
:104FF00085C74C5891C9930744046385F5004A85D9
:10500000EFF04FD9232A04025E242322040093F7F1
:10501000B7FD5EA41C481CC05E2493E787005EA415
:105020001C4899EB5E241307002093F7072863853B
:10503000E700A2854A85BD2C5E2413F717001DC327
:105040005C4823240400B307F0401CCC1C480145F5
:10505000ADFB8317C40013F7070825D793E70704B0
:105060005EA4B9BF898B014791E3584818C4F9BFC2
:10507000411122C42A842E8523A601C406C68D268A
:10508000FD576317F5009387C1C49C4391C31CC0AF
:10509000B240224441018280DE25011122CC26CA81
:1050A00006CE4AC84EC613F78700AA842E8461EF45
:1050B000D841634DE000B841634AE0000145F24049
:1050C0006244D2444249B2490561828058547DD736
:1050D00003A904009396370123A0040063DC0606AD
:1050E00070485E24918B99C75C401D8E5C5899C3B3
:1050F0003C401D8E5C540C50814626858297FD579E
:105100005A24631DF5009440F54763E9D706B707B5
:1051100040208507B3D7D700858BADC31C48232219
:1051200004001CC09317370163D80700FD576314B0
:10513000F5009C4091E368C84C5823A02401BDDDD4
:10514000930744046385F5002685EFF0AFC4232A56
:105150000402ADB70C500146854626850297FD57DF
:105160002A86E310F5F89C40ADDF75476385E700BC
:1051700059476393E70423A0240189B71367070401
:105180005AA47D552DBF83A90501E38909F203A91E
:1051900005008D8B23A0350133093941014791E387
:1051A000D84918C4E35C20F11C540C50CA864E86C2
:1051B000268582976347A0005E2493E707045EA4D8
:1051C000C9B7AA993309A940F1BF9C49ADC30111E0
:1051D00022CC06CE2A8419C51C4D89E72EC6EFF0D5
:1051E0002FA4B24597170000938707DB639CF50057
:1051F0004C408397C5009DC722856244F2400561FB
:105200006FF09FE997170000938707DB6394F50021
:105210000C44C5B797170000938707D6E39BF5FCAE
:105220004C44C1BFF24062440145056182800145A2
:105230008280411122C42A842E85B285368623A617
:1052400001C406C6C122FD576317F5009387C1C488
:105250009C4391C31CC0B240224441018280197119
:10526000A6DAAE848395E500A2DC86DE328463DBB9
:105270000500DE2423A0060093F707089DE39307AB
:10528000004015A0300836C61922B246E34305FE99
:105290007247BD67F98F7977BA9793B717009CC2A9
:1052A000F9BF930700041CC0F6506654D65401455C
:1052B00009618280DE25011122CC06CE26CA4AC8A9
:1052C000898B2E8489CF930774041CC01CC8854722
:1052D0005CC8F2406244D244424905618280740055
:1052E0003000AA84EFF0BFF7A2452A892685EFF0A7
:1052F000EFB419E98317C40013F7072079FBF19B7A
:1053000093E727005EA4C1B797F7FFFF9387870C49
:105310009CD45E2408C008C893E707085EA4A2478F
:105320005CC8B24799CB8315E4002685712011C56E
:105330005E24F19B93E717005EA45E243369F900B5
:105340002316240179B793F5F50F2A966314C50047
:10535000014582801C21E38EB7FE0505C5BF828012
:105360008280411122C42A842E85B285368623A6E6
:1053700001C406C67128FD576317F5009387C1C4A1
:105380009C4391C31CC0B240224441018280411120
:1053900022C42A842E85B28523A601C406C6B9205C
:1053A000FD576317F5009387C1C49C4391C31CC08C
:1053B000B240224441018280411122C42A842E85B8
:1053C00023A601C406C60D28FD576317F500938771
:1053D000C1C49C4391C31CC0B2402244410182809D
:1053E0009307800523A6F1C47D558280930780052D
:1053F00023A6F1C47D5582809307800523A6F1C4BE
:10540000014582809307800523A6F1C47D558280E3
:105410009307800523A6F1C47D5582805379737468
:10542000656D436C6B3A25640D0A00004368697032
:1054300049443A253038780D0A0000005652582069
:105440004368616E6E656C3A0000000041300000F8
:10545000467265713A0000004D487A0043483100B9
:10546000434832000000803F0000CA42E916D516CA
:10547000C116AD169916851671165D166516781645
:105480008B169E16B116C416D716EA16491635168F
:1054900021160D16FD161117251739176C168016D3
:1054A0009416A816BC16D016E416F8161A163F164F
:1054B00064168916AE16D316F8161D17F2141715B2
:1054C0003C1561158615AB15D015F51500000000CB
:1054D0000000000010101010001000002828280004
:1054E0000000000028287C287C282800103C503828
:1054F00014781000004C2C100860600030485020D8
:105500005448340030102000000000000810202013
:10551000201008002010080808102000001054383F
:10552000541000000010107C10100000000000005B
:1055300000180810000000007C00000000000000BF
:1055400000303000000408102040000038444C5463
:10555000644438001030101010103800384404082B
:1055600010207C007C0810080444380008182848E3
:105570007C0808007C4078040444380018204078F7
:10558000444438007C04081020202000384444386B
:10559000444438003844443C0408300000303000B3
:1055A0003030000000303000301020000810204063
:1055B0002010080000007C007C000000201008047F
:1055C0000810200038440408100010003844043447
:1055D0005C443800102844447C44440078444478B7
:1055E00044447800384440404044380070484444C3
:1055F000444870007C40407840407C007C404078CB
:10560000404040003844405C44443C004444447CB6
:105610004444440038101010101038001C080808CA
:1056200008483000444850605048440040404040E2
:1056300040407C00446C545444444400444464540A
:105640004C4444003844444444443800784444784A
:10565000404040003844444454483400784444783E
:10566000504844003C404038040478007C1010103E
:10567000101010004444444444443800444444441A
:1056800044281000444444545454280044442810EE
:105690002844440044444428101010007C0408109E
:1056A00020407C003820202020203800004020109E
:1056B00008040000380808080808380010284400CA
:1056C000000000000000000000007C002010080026
:1056D00000000000000038043C443C004040586496
:1056E0004444780000003840404438000404344CFE
:1056F00044443C00000038447C403800382420708A
:105700002020200000003C44443C043840405864C1
:1057100044444400100030101010380008001808ED
:105720000808483040404850605048003010101081
:1057300010103800000068545444440000005864BD
:105740004444440000003844444438000000586495
:10575000645840400000344C4C3404040000586449
:105760004040400000003C40380478002020702079
:105770002024180000004444444C340000004444F9
:1057800044281000000044445454280000004428D9
:105790001028440000004444443C043800007C08C5
:1057A00010207C001020204020201000001010103D
:1057B0001010100020101008101020000000002011
:1057C000540800000000000000000000000000007D
:1057D0000000000000000018181818181818000021
:1057E00018180000001236244800000000000000D5
:1057F00000000000000000242424FE484848FE4821
:105800004848000000001038545450301C14145400
:105810005438101000000044A4A8A8A8541A2A2A3A
:105820002A44000000000030484848506EA4948884
:105830008976000000606020C000000000000000C9
:1058400000000000000204080810101010101008DA
:10585000080402000040201010080808080808107A
:1058600010204000000000001010D63838D610106C
:10587000000000000000000010101010FE101010BA
:105880001000000000000000000000000000000008
:10589000606020C000000000000000007F000000E9
:1058A00000000000000000000000000000000000F8
:1058B00060600000000001020204040808101020CB
:1058C000204040000000001824424242424242422E
:1058D000241800000000001070101010101010109C
:1058E000107C00000000003C4242420404081020EA
:1058F000427E00000000003C4242041804020242C2
:1059000044380000000000040C14242444447E04A5
:10591000041E00000000007E404040586402024225
:10592000443800000000001C2440405864424242B9
:10593000241800000000007E4244080810101010D7
:10594000101000000000003C424242241824424251
:10595000423C00000000001824424242261A020283
:1059600024380000000000000000181800000000AB
:1059700018180000000000000000181800000018AF
:105980001808300000000002040810204020100811
:1059900004020000000000000000FE000000FE0005
:1059A000000000000000004020100804020408105D
:1059B000204000000000003C42426202040808004F
:1059C0001818000000000038445AAAAAAAAAB44233
:1059D000443800000000001010182828243C4442DD
:1059E00042E70000000000F8444444784442424248
:1059F00044F800000000003E4242808080808042E7
:105A000044380000000000F8444242424242424210
:105A100044F80000000000FE4248487848484042F0
:105A200042FE0000000000FE4248487848484040DE
:105A300040E000000000003C44448080808E8444AC
:105A400044380000000000E7424242427E424242A7
:105A500042E700000000007C101010101010101021
:105A6000107C00000000003E08080808080808082C
:105A7000080888F0000000EE444850705048484440
:105A800044EE0000000000E0404040404040404004
:105A900042FE0000000000EE6C6C6C6C54545454D8
:105AA00054D60000000000C7626252524A4A4A4679
:105AB00046E20000000000384482828282828282B4
:105AC00044380000000000FC424242427C4040401A
:105AD00040E0000000000038448282828282B2CA24
